{
  "_format": "hh-sol-artifact-1",
  "contractName": "PolyHopCharacter",
  "sourceName": "contracts/polyHopCharacter.sol",
  "abi": [
    {
      "inputs": [],
      "stateMutability": "nonpayable",
      "type": "constructor"
    },
    {
      "inputs": [
        {
          "internalType": "address",
          "name": "sender",
          "type": "address"
        },
        {
          "internalType": "uint256",
          "name": "tokenId",
          "type": "uint256"
        },
        {
          "internalType": "address",
          "name": "owner",
          "type": "address"
        }
      ],
      "name": "ERC721IncorrectOwner",
      "type": "error"
    },
    {
      "inputs": [
        {
          "internalType": "address",
          "name": "operator",
          "type": "address"
        },
        {
          "internalType": "uint256",
          "name": "tokenId",
          "type": "uint256"
        }
      ],
      "name": "ERC721InsufficientApproval",
      "type": "error"
    },
    {
      "inputs": [
        {
          "internalType": "address",
          "name": "approver",
          "type": "address"
        }
      ],
      "name": "ERC721InvalidApprover",
      "type": "error"
    },
    {
      "inputs": [
        {
          "internalType": "address",
          "name": "operator",
          "type": "address"
        }
      ],
      "name": "ERC721InvalidOperator",
      "type": "error"
    },
    {
      "inputs": [
        {
          "internalType": "address",
          "name": "owner",
          "type": "address"
        }
      ],
      "name": "ERC721InvalidOwner",
      "type": "error"
    },
    {
      "inputs": [
        {
          "internalType": "address",
          "name": "receiver",
          "type": "address"
        }
      ],
      "name": "ERC721InvalidReceiver",
      "type": "error"
    },
    {
      "inputs": [
        {
          "internalType": "address",
          "name": "sender",
          "type": "address"
        }
      ],
      "name": "ERC721InvalidSender",
      "type": "error"
    },
    {
      "inputs": [
        {
          "internalType": "uint256",
          "name": "tokenId",
          "type": "uint256"
        }
      ],
      "name": "ERC721NonexistentToken",
      "type": "error"
    },
    {
      "inputs": [
        {
          "internalType": "address",
          "name": "owner",
          "type": "address"
        }
      ],
      "name": "OwnableInvalidOwner",
      "type": "error"
    },
    {
      "inputs": [
        {
          "internalType": "address",
          "name": "account",
          "type": "address"
        }
      ],
      "name": "OwnableUnauthorizedAccount",
      "type": "error"
    },
    {
      "anonymous": false,
      "inputs": [
        {
          "indexed": true,
          "internalType": "address",
          "name": "owner",
          "type": "address"
        },
        {
          "indexed": true,
          "internalType": "address",
          "name": "approved",
          "type": "address"
        },
        {
          "indexed": true,
          "internalType": "uint256",
          "name": "tokenId",
          "type": "uint256"
        }
      ],
      "name": "Approval",
      "type": "event"
    },
    {
      "anonymous": false,
      "inputs": [
        {
          "indexed": true,
          "internalType": "address",
          "name": "owner",
          "type": "address"
        },
        {
          "indexed": true,
          "internalType": "address",
          "name": "operator",
          "type": "address"
        },
        {
          "indexed": false,
          "internalType": "bool",
          "name": "approved",
          "type": "bool"
        }
      ],
      "name": "ApprovalForAll",
      "type": "event"
    },
    {
      "anonymous": false,
      "inputs": [
        {
          "indexed": false,
          "internalType": "uint256",
          "name": "_fromTokenId",
          "type": "uint256"
        },
        {
          "indexed": false,
          "internalType": "uint256",
          "name": "_toTokenId",
          "type": "uint256"
        }
      ],
      "name": "BatchMetadataUpdate",
      "type": "event"
    },
    {
      "anonymous": false,
      "inputs": [
        {
          "indexed": false,
          "internalType": "uint256",
          "name": "_tokenId",
          "type": "uint256"
        }
      ],
      "name": "MetadataUpdate",
      "type": "event"
    },
    {
      "anonymous": false,
      "inputs": [
        {
          "indexed": true,
          "internalType": "address",
          "name": "previousOwner",
          "type": "address"
        },
        {
          "indexed": true,
          "internalType": "address",
          "name": "newOwner",
          "type": "address"
        }
      ],
      "name": "OwnershipTransferred",
      "type": "event"
    },
    {
      "anonymous": false,
      "inputs": [
        {
          "indexed": true,
          "internalType": "address",
          "name": "from",
          "type": "address"
        },
        {
          "indexed": true,
          "internalType": "address",
          "name": "to",
          "type": "address"
        },
        {
          "indexed": true,
          "internalType": "uint256",
          "name": "tokenId",
          "type": "uint256"
        }
      ],
      "name": "Transfer",
      "type": "event"
    },
    {
      "inputs": [
        {
          "internalType": "address",
          "name": "to",
          "type": "address"
        },
        {
          "internalType": "uint256",
          "name": "tokenId",
          "type": "uint256"
        }
      ],
      "name": "approve",
      "outputs": [],
      "stateMutability": "nonpayable",
      "type": "function"
    },
    {
      "inputs": [
        {
          "internalType": "address",
          "name": "owner",
          "type": "address"
        }
      ],
      "name": "balanceOf",
      "outputs": [
        {
          "internalType": "uint256",
          "name": "",
          "type": "uint256"
        }
      ],
      "stateMutability": "view",
      "type": "function"
    },
    {
      "inputs": [
        {
          "internalType": "uint256",
          "name": "tokenId",
          "type": "uint256"
        }
      ],
      "name": "getApproved",
      "outputs": [
        {
          "internalType": "address",
          "name": "",
          "type": "address"
        }
      ],
      "stateMutability": "view",
      "type": "function"
    },
    {
      "inputs": [
        {
          "internalType": "address",
          "name": "owner",
          "type": "address"
        },
        {
          "internalType": "address",
          "name": "operator",
          "type": "address"
        }
      ],
      "name": "isApprovedForAll",
      "outputs": [
        {
          "internalType": "bool",
          "name": "",
          "type": "bool"
        }
      ],
      "stateMutability": "view",
      "type": "function"
    },
    {
      "inputs": [
        {
          "internalType": "string",
          "name": "tokenURI",
          "type": "string"
        }
      ],
      "name": "mintCharacter",
      "outputs": [
        {
          "internalType": "uint256",
          "name": "",
          "type": "uint256"
        }
      ],
      "stateMutability": "nonpayable",
      "type": "function"
    },
    {
      "inputs": [],
      "name": "name",
      "outputs": [
        {
          "internalType": "string",
          "name": "",
          "type": "string"
        }
      ],
      "stateMutability": "view",
      "type": "function"
    },
    {
      "inputs": [],
      "name": "nextTokenId",
      "outputs": [
        {
          "internalType": "uint256",
          "name": "",
          "type": "uint256"
        }
      ],
      "stateMutability": "view",
      "type": "function"
    },
    {
      "inputs": [],
      "name": "owner",
      "outputs": [
        {
          "internalType": "address",
          "name": "",
          "type": "address"
        }
      ],
      "stateMutability": "view",
      "type": "function"
    },
    {
      "inputs": [
        {
          "internalType": "uint256",
          "name": "tokenId",
          "type": "uint256"
        }
      ],
      "name": "ownerOf",
      "outputs": [
        {
          "internalType": "address",
          "name": "",
          "type": "address"
        }
      ],
      "stateMutability": "view",
      "type": "function"
    },
    {
      "inputs": [],
      "name": "renounceOwnership",
      "outputs": [],
      "stateMutability": "nonpayable",
      "type": "function"
    },
    {
      "inputs": [
        {
          "internalType": "address",
          "name": "from",
          "type": "address"
        },
        {
          "internalType": "address",
          "name": "to",
          "type": "address"
        },
        {
          "internalType": "uint256",
          "name": "tokenId",
          "type": "uint256"
        }
      ],
      "name": "safeTransferFrom",
      "outputs": [],
      "stateMutability": "nonpayable",
      "type": "function"
    },
    {
      "inputs": [
        {
          "internalType": "address",
          "name": "from",
          "type": "address"
        },
        {
          "internalType": "address",
          "name": "to",
          "type": "address"
        },
        {
          "internalType": "uint256",
          "name": "tokenId",
          "type": "uint256"
        },
        {
          "internalType": "bytes",
          "name": "data",
          "type": "bytes"
        }
      ],
      "name": "safeTransferFrom",
      "outputs": [],
      "stateMutability": "nonpayable",
      "type": "function"
    },
    {
      "inputs": [
        {
          "internalType": "address",
          "name": "operator",
          "type": "address"
        },
        {
          "internalType": "bool",
          "name": "approved",
          "type": "bool"
        }
      ],
      "name": "setApprovalForAll",
      "outputs": [],
      "stateMutability": "nonpayable",
      "type": "function"
    },
    {
      "inputs": [
        {
          "internalType": "bytes4",
          "name": "interfaceId",
          "type": "bytes4"
        }
      ],
      "name": "supportsInterface",
      "outputs": [
        {
          "internalType": "bool",
          "name": "",
          "type": "bool"
        }
      ],
      "stateMutability": "view",
      "type": "function"
    },
    {
      "inputs": [],
      "name": "symbol",
      "outputs": [
        {
          "internalType": "string",
          "name": "",
          "type": "string"
        }
      ],
      "stateMutability": "view",
      "type": "function"
    },
    {
      "inputs": [
        {
          "internalType": "uint256",
          "name": "tokenId",
          "type": "uint256"
        }
      ],
      "name": "tokenURI",
      "outputs": [
        {
          "internalType": "string",
          "name": "",
          "type": "string"
        }
      ],
      "stateMutability": "view",
      "type": "function"
    },
    {
      "inputs": [
        {
          "internalType": "address",
          "name": "from",
          "type": "address"
        },
        {
          "internalType": "address",
          "name": "to",
          "type": "address"
        },
        {
          "internalType": "uint256",
          "name": "tokenId",
          "type": "uint256"
        }
      ],
      "name": "transferFrom",
      "outputs": [],
      "stateMutability": "nonpayable",
      "type": "function"
    },
    {
      "inputs": [
        {
          "internalType": "address",
          "name": "newOwner",
          "type": "address"
        }
      ],
      "name": "transferOwnership",
      "outputs": [],
      "stateMutability": "nonpayable",
      "type": "function"
    }
  ],
  "bytecode": "0x60806040523480156200001157600080fd5b50336040518060400160405280601181526020017f506f6c79486f70204368617261637465720000000000000000000000000000008152506040518060400160405280600381526020017f5048430000000000000000000000000000000000000000000000000000000000815250816000908162000090919062000472565b508060019081620000a2919062000472565b505050600073ffffffffffffffffffffffffffffffffffffffff168173ffffffffffffffffffffffffffffffffffffffff16036200011a5760006040517f1e4fbdf70000000000000000000000000000000000000000000000000000000081526004016200011191906200059e565b60405180910390fd5b6200012b816200013260201b60201c565b50620005bb565b6000600760009054906101000a900473ffffffffffffffffffffffffffffffffffffffff16905081600760006101000a81548173ffffffffffffffffffffffffffffffffffffffff021916908373ffffffffffffffffffffffffffffffffffffffff1602179055508173ffffffffffffffffffffffffffffffffffffffff168173ffffffffffffffffffffffffffffffffffffffff167f8be0079c531659141344cd1fd0a4f28419497f9722a3daafe3b4186f6b6457e060405160405180910390a35050565b600081519050919050565b7f4e487b7100000000000000000000000000000000000000000000000000000000600052604160045260246000fd5b7f4e487b7100000000000000000000000000000000000000000000000000000000600052602260045260246000fd5b600060028204905060018216806200027a57607f821691505b60208210810362000290576200028f62000232565b5b50919050565b60008190508160005260206000209050919050565b60006020601f8301049050919050565b600082821b905092915050565b600060088302620002fa7fffffffffffffffffffffffffffffffffffffffffffffffffffffffffffffffff82620002bb565b620003068683620002bb565b95508019841693508086168417925050509392505050565b6000819050919050565b6000819050919050565b6000620003536200034d62000347846200031e565b62000328565b6200031e565b9050919050565b6000819050919050565b6200036f8362000332565b620003876200037e826200035a565b848454620002c8565b825550505050565b600090565b6200039e6200038f565b620003ab81848462000364565b505050565b5b81811015620003d357620003c760008262000394565b600181019050620003b1565b5050565b601f8211156200042257620003ec8162000296565b620003f784620002ab565b8101602085101562000407578190505b6200041f6200041685620002ab565b830182620003b0565b50505b505050565b600082821c905092915050565b6000620004476000198460080262000427565b1980831691505092915050565b600062000462838362000434565b9150826002028217905092915050565b6200047d82620001f8565b67ffffffffffffffff81111562000499576200049862000203565b5b620004a5825462000261565b620004b2828285620003d7565b600060209050601f831160018114620004ea5760008415620004d5578287015190505b620004e1858262000454565b86555062000551565b601f198416620004fa8662000296565b60005b828110156200052457848901518255600182019150602085019450602081019050620004fd565b8683101562000544578489015162000540601f89168262000434565b8355505b6001600288020188555050505b505050505050565b600073ffffffffffffffffffffffffffffffffffffffff82169050919050565b6000620005868262000559565b9050919050565b620005988162000579565b82525050565b6000602082019050620005b560008301846200058d565b92915050565b61268f80620005cb6000396000f3fe608060405234801561001057600080fd5b50600436106101165760003560e01c8063715018a6116100a2578063a22cb46511610071578063a22cb465146102e1578063b88d4fde146102fd578063c87b56dd14610319578063e985e9c514610349578063f2fde38b1461037957610116565b8063715018a61461027d57806375794a3c146102875780638da5cb5b146102a557806395d89b41146102c357610116565b806323b872dd116100e957806323b872dd146101b55780632b1d5039146101d157806342842e0e146102015780636352211e1461021d57806370a082311461024d57610116565b806301ffc9a71461011b57806306fdde031461014b578063081812fc14610169578063095ea7b314610199575b600080fd5b61013560048036038101906101309190611afa565b610395565b6040516101429190611b42565b60405180910390f35b6101536103f6565b6040516101609190611bed565b60405180910390f35b610183600480360381019061017e9190611c45565b610488565b6040516101909190611cb3565b60405180910390f35b6101b360048036038101906101ae9190611cfa565b6104a4565b005b6101cf60048036038101906101ca9190611d3a565b6104ba565b005b6101eb60048036038101906101e69190611ec2565b6105bc565b6040516101f89190611f1a565b60405180910390f35b61021b60048036038101906102169190611d3a565b6105f3565b005b61023760048036038101906102329190611c45565b610613565b6040516102449190611cb3565b60405180910390f35b61026760048036038101906102629190611f35565b610625565b6040516102749190611f1a565b60405180910390f35b6102856106df565b005b61028f6106f3565b60405161029c9190611f1a565b60405180910390f35b6102ad6106f9565b6040516102ba9190611cb3565b60405180910390f35b6102cb610723565b6040516102d89190611bed565b60405180910390f35b6102fb60048036038101906102f69190611f8e565b6107b5565b005b6103176004803603810190610312919061206f565b6107cb565b005b610333600480360381019061032e9190611c45565b6107f0565b6040516103409190611bed565b60405180910390f35b610363600480360381019061035e91906120f2565b610903565b6040516103709190611b42565b60405180910390f35b610393600480360381019061038e9190611f35565b610997565b005b6000634906490660e01b7bffffffffffffffffffffffffffffffffffffffffffffffffffffffff1916827bffffffffffffffffffffffffffffffffffffffffffffffffffffffff191614806103ef57506103ee82610a1d565b5b9050919050565b60606000805461040590612161565b80601f016020809104026020016040519081016040528092919081815260200182805461043190612161565b801561047e5780601f106104535761010080835404028352916020019161047e565b820191906000526020600020905b81548152906001019060200180831161046157829003601f168201915b5050505050905090565b600061049382610aff565b5061049d82610b87565b9050919050565b6104b682826104b1610bc4565b610bcc565b5050565b600073ffffffffffffffffffffffffffffffffffffffff168273ffffffffffffffffffffffffffffffffffffffff160361052c5760006040517f64a0ae920000000000000000000000000000000000000000000000000000000081526004016105239190611cb3565b60405180910390fd5b6000610540838361053b610bc4565b610bde565b90508373ffffffffffffffffffffffffffffffffffffffff168173ffffffffffffffffffffffffffffffffffffffff16146105b6578382826040517f64283d7b0000000000000000000000000000000000000000000000000000000081526004016105ad93929190612192565b60405180910390fd5b50505050565b6000806008600081546105ce906121f8565b91905081905590506105e03382610df8565b6105ea8184610e16565b80915050919050565b61060e838383604051806020016040528060008152506107cb565b505050565b600061061e82610aff565b9050919050565b60008073ffffffffffffffffffffffffffffffffffffffff168273ffffffffffffffffffffffffffffffffffffffff16036106985760006040517f89c62b6400000000000000000000000000000000000000000000000000000000815260040161068f9190611cb3565b60405180910390fd5b600360008373ffffffffffffffffffffffffffffffffffffffff1673ffffffffffffffffffffffffffffffffffffffff168152602001908152602001600020549050919050565b6106e7610e72565b6106f16000610ef9565b565b60085481565b6000600760009054906101000a900473ffffffffffffffffffffffffffffffffffffffff16905090565b60606001805461073290612161565b80601f016020809104026020016040519081016040528092919081815260200182805461075e90612161565b80156107ab5780601f10610780576101008083540402835291602001916107ab565b820191906000526020600020905b81548152906001019060200180831161078e57829003601f168201915b5050505050905090565b6107c76107c0610bc4565b8383610fbf565b5050565b6107d68484846104ba565b6107ea6107e1610bc4565b8585858561112e565b50505050565b60606107fb82610aff565b50600060066000848152602001908152602001600020805461081c90612161565b80601f016020809104026020016040519081016040528092919081815260200182805461084890612161565b80156108955780601f1061086a57610100808354040283529160200191610895565b820191906000526020600020905b81548152906001019060200180831161087857829003601f168201915b5050505050905060006108a66112df565b905060008151036108bb5781925050506108fe565b6000825111156108f05780826040516020016108d892919061227c565b604051602081830303815290604052925050506108fe565b6108f9846112f6565b925050505b919050565b6000600560008473ffffffffffffffffffffffffffffffffffffffff1673ffffffffffffffffffffffffffffffffffffffff16815260200190815260200160002060008373ffffffffffffffffffffffffffffffffffffffff1673ffffffffffffffffffffffffffffffffffffffff16815260200190815260200160002060009054906101000a900460ff16905092915050565b61099f610e72565b600073ffffffffffffffffffffffffffffffffffffffff168173ffffffffffffffffffffffffffffffffffffffff1603610a115760006040517f1e4fbdf7000000000000000000000000000000000000000000000000000000008152600401610a089190611cb3565b60405180910390fd5b610a1a81610ef9565b50565b60007f80ac58cd000000000000000000000000000000000000000000000000000000007bffffffffffffffffffffffffffffffffffffffffffffffffffffffff1916827bffffffffffffffffffffffffffffffffffffffffffffffffffffffff19161480610ae857507f5b5e139f000000000000000000000000000000000000000000000000000000007bffffffffffffffffffffffffffffffffffffffffffffffffffffffff1916827bffffffffffffffffffffffffffffffffffffffffffffffffffffffff1916145b80610af85750610af78261135f565b5b9050919050565b600080610b0b836113c9565b9050600073ffffffffffffffffffffffffffffffffffffffff168173ffffffffffffffffffffffffffffffffffffffff1603610b7e57826040517f7e273289000000000000000000000000000000000000000000000000000000008152600401610b759190611f1a565b60405180910390fd5b80915050919050565b60006004600083815260200190815260200160002060009054906101000a900473ffffffffffffffffffffffffffffffffffffffff169050919050565b600033905090565b610bd98383836001611406565b505050565b600080610bea846113c9565b9050600073ffffffffffffffffffffffffffffffffffffffff168373ffffffffffffffffffffffffffffffffffffffff1614610c2c57610c2b8184866115cb565b5b600073ffffffffffffffffffffffffffffffffffffffff168173ffffffffffffffffffffffffffffffffffffffff1614610cbd57610c6e600085600080611406565b6001600360008373ffffffffffffffffffffffffffffffffffffffff1673ffffffffffffffffffffffffffffffffffffffff168152602001908152602001600020600082825403925050819055505b600073ffffffffffffffffffffffffffffffffffffffff168573ffffffffffffffffffffffffffffffffffffffff1614610d40576001600360008773ffffffffffffffffffffffffffffffffffffffff1673ffffffffffffffffffffffffffffffffffffffff168152602001908152602001600020600082825401925050819055505b846002600086815260200190815260200160002060006101000a81548173ffffffffffffffffffffffffffffffffffffffff021916908373ffffffffffffffffffffffffffffffffffffffff160217905550838573ffffffffffffffffffffffffffffffffffffffff168273ffffffffffffffffffffffffffffffffffffffff167fddf252ad1be2c89b69c2b068fc378daa952ba7f163c4a11628f55a4df523b3ef60405160405180910390a4809150509392505050565b610e1282826040518060200160405280600081525061168f565b5050565b80600660008481526020019081526020016000209081610e36919061244c565b507ff8e1a15aba9398e019f0b49df1a4fde98ee17ae345cb5f6b5e2c27f5033e8ce782604051610e669190611f1a565b60405180910390a15050565b610e7a610bc4565b73ffffffffffffffffffffffffffffffffffffffff16610e986106f9565b73ffffffffffffffffffffffffffffffffffffffff1614610ef757610ebb610bc4565b6040517f118cdaa7000000000000000000000000000000000000000000000000000000008152600401610eee9190611cb3565b60405180910390fd5b565b6000600760009054906101000a900473ffffffffffffffffffffffffffffffffffffffff16905081600760006101000a81548173ffffffffffffffffffffffffffffffffffffffff021916908373ffffffffffffffffffffffffffffffffffffffff1602179055508173ffffffffffffffffffffffffffffffffffffffff168173ffffffffffffffffffffffffffffffffffffffff167f8be0079c531659141344cd1fd0a4f28419497f9722a3daafe3b4186f6b6457e060405160405180910390a35050565b600073ffffffffffffffffffffffffffffffffffffffff168273ffffffffffffffffffffffffffffffffffffffff160361103057816040517f5b08ba180000000000000000000000000000000000000000000000000000000081526004016110279190611cb3565b60405180910390fd5b80600560008573ffffffffffffffffffffffffffffffffffffffff1673ffffffffffffffffffffffffffffffffffffffff16815260200190815260200160002060008473ffffffffffffffffffffffffffffffffffffffff1673ffffffffffffffffffffffffffffffffffffffff16815260200190815260200160002060006101000a81548160ff0219169083151502179055508173ffffffffffffffffffffffffffffffffffffffff168373ffffffffffffffffffffffffffffffffffffffff167f17307eab39ab6107e8899845ad3d59bd9653f200f220920489ca2b5937696c31836040516111219190611b42565b60405180910390a3505050565b60008373ffffffffffffffffffffffffffffffffffffffff163b11156112d8578273ffffffffffffffffffffffffffffffffffffffff1663150b7a02868685856040518563ffffffff1660e01b815260040161118d9493929190612573565b6020604051808303816000875af19250505080156111c957506040513d601f19601f820116820180604052508101906111c691906125d4565b60015b61124d573d80600081146111f9576040519150601f19603f3d011682016040523d82523d6000602084013e6111fe565b606091505b50600081510361124557836040517f64a0ae9200000000000000000000000000000000000000000000000000000000815260040161123c9190611cb3565b60405180910390fd5b805181602001fd5b63150b7a0260e01b7bffffffffffffffffffffffffffffffffffffffffffffffffffffffff1916817bffffffffffffffffffffffffffffffffffffffffffffffffffffffff1916146112d657836040517f64a0ae920000000000000000000000000000000000000000000000000000000081526004016112cd9190611cb3565b60405180910390fd5b505b5050505050565b606060405180602001604052806000815250905090565b606061130182610aff565b50600061130c6112df565b9050600081511161132c5760405180602001604052806000815250611357565b80611336846116b3565b60405160200161134792919061227c565b6040516020818303038152906040525b915050919050565b60007f01ffc9a7000000000000000000000000000000000000000000000000000000007bffffffffffffffffffffffffffffffffffffffffffffffffffffffff1916827bffffffffffffffffffffffffffffffffffffffffffffffffffffffff1916149050919050565b60006002600083815260200190815260200160002060009054906101000a900473ffffffffffffffffffffffffffffffffffffffff169050919050565b808061143f5750600073ffffffffffffffffffffffffffffffffffffffff168273ffffffffffffffffffffffffffffffffffffffff1614155b1561157357600061144f84610aff565b9050600073ffffffffffffffffffffffffffffffffffffffff168373ffffffffffffffffffffffffffffffffffffffff16141580156114ba57508273ffffffffffffffffffffffffffffffffffffffff168173ffffffffffffffffffffffffffffffffffffffff1614155b80156114cd57506114cb8184610903565b155b1561150f57826040517fa9fbf51f0000000000000000000000000000000000000000000000000000000081526004016115069190611cb3565b60405180910390fd5b811561157157838573ffffffffffffffffffffffffffffffffffffffff168273ffffffffffffffffffffffffffffffffffffffff167f8c5be1e5ebec7d5bd14f71427d1e84f3dd0314c0f7b2291e5b200ac8c7c3b92560405160405180910390a45b505b836004600085815260200190815260200160002060006101000a81548173ffffffffffffffffffffffffffffffffffffffff021916908373ffffffffffffffffffffffffffffffffffffffff16021790555050505050565b6115d6838383611781565b61168a57600073ffffffffffffffffffffffffffffffffffffffff168373ffffffffffffffffffffffffffffffffffffffff160361164b57806040517f7e2732890000000000000000000000000000000000000000000000000000000081526004016116429190611f1a565b60405180910390fd5b81816040517f177e802f000000000000000000000000000000000000000000000000000000008152600401611681929190612601565b60405180910390fd5b505050565b6116998383611842565b6116ae6116a4610bc4565b600085858561112e565b505050565b6060600060016116c28461193b565b01905060008167ffffffffffffffff8111156116e1576116e0611d97565b5b6040519080825280601f01601f1916602001820160405280156117135781602001600182028036833780820191505090505b509050600082602001820190505b600115611776578080600190039150507f3031323334353637383961626364656600000000000000000000000000000000600a86061a8153600a858161176a5761176961262a565b5b04945060008503611721575b819350505050919050565b60008073ffffffffffffffffffffffffffffffffffffffff168373ffffffffffffffffffffffffffffffffffffffff161415801561183957508273ffffffffffffffffffffffffffffffffffffffff168473ffffffffffffffffffffffffffffffffffffffff1614806117fa57506117f98484610903565b5b8061183857508273ffffffffffffffffffffffffffffffffffffffff1661182083610b87565b73ffffffffffffffffffffffffffffffffffffffff16145b5b90509392505050565b600073ffffffffffffffffffffffffffffffffffffffff168273ffffffffffffffffffffffffffffffffffffffff16036118b45760006040517f64a0ae920000000000000000000000000000000000000000000000000000000081526004016118ab9190611cb3565b60405180910390fd5b60006118c283836000610bde565b9050600073ffffffffffffffffffffffffffffffffffffffff168173ffffffffffffffffffffffffffffffffffffffff16146119365760006040517f73c6ac6e00000000000000000000000000000000000000000000000000000000815260040161192d9190611cb3565b60405180910390fd5b505050565b600080600090507a184f03e93ff9f4daa797ed6e38ed64bf6a1f0100000000000000008310611999577a184f03e93ff9f4daa797ed6e38ed64bf6a1f010000000000000000838161198f5761198e61262a565b5b0492506040810190505b6d04ee2d6d415b85acef810000000083106119d6576d04ee2d6d415b85acef810000000083816119cc576119cb61262a565b5b0492506020810190505b662386f26fc100008310611a0557662386f26fc1000083816119fb576119fa61262a565b5b0492506010810190505b6305f5e1008310611a2e576305f5e1008381611a2457611a2361262a565b5b0492506008810190505b6127108310611a53576127108381611a4957611a4861262a565b5b0492506004810190505b60648310611a765760648381611a6c57611a6b61262a565b5b0492506002810190505b600a8310611a85576001810190505b80915050919050565b6000604051905090565b600080fd5b600080fd5b60007fffffffff0000000000000000000000000000000000000000000000000000000082169050919050565b611ad781611aa2565b8114611ae257600080fd5b50565b600081359050611af481611ace565b92915050565b600060208284031215611b1057611b0f611a98565b5b6000611b1e84828501611ae5565b91505092915050565b60008115159050919050565b611b3c81611b27565b82525050565b6000602082019050611b576000830184611b33565b92915050565b600081519050919050565b600082825260208201905092915050565b60005b83811015611b97578082015181840152602081019050611b7c565b60008484015250505050565b6000601f19601f8301169050919050565b6000611bbf82611b5d565b611bc98185611b68565b9350611bd9818560208601611b79565b611be281611ba3565b840191505092915050565b60006020820190508181036000830152611c078184611bb4565b905092915050565b6000819050919050565b611c2281611c0f565b8114611c2d57600080fd5b50565b600081359050611c3f81611c19565b92915050565b600060208284031215611c5b57611c5a611a98565b5b6000611c6984828501611c30565b91505092915050565b600073ffffffffffffffffffffffffffffffffffffffff82169050919050565b6000611c9d82611c72565b9050919050565b611cad81611c92565b82525050565b6000602082019050611cc86000830184611ca4565b92915050565b611cd781611c92565b8114611ce257600080fd5b50565b600081359050611cf481611cce565b92915050565b60008060408385031215611d1157611d10611a98565b5b6000611d1f85828601611ce5565b9250506020611d3085828601611c30565b9150509250929050565b600080600060608486031215611d5357611d52611a98565b5b6000611d6186828701611ce5565b9350506020611d7286828701611ce5565b9250506040611d8386828701611c30565b9150509250925092565b600080fd5b600080fd5b7f4e487b7100000000000000000000000000000000000000000000000000000000600052604160045260246000fd5b611dcf82611ba3565b810181811067ffffffffffffffff82111715611dee57611ded611d97565b5b80604052505050565b6000611e01611a8e565b9050611e0d8282611dc6565b919050565b600067ffffffffffffffff821115611e2d57611e2c611d97565b5b611e3682611ba3565b9050602081019050919050565b82818337600083830152505050565b6000611e65611e6084611e12565b611df7565b905082815260208101848484011115611e8157611e80611d92565b5b611e8c848285611e43565b509392505050565b600082601f830112611ea957611ea8611d8d565b5b8135611eb9848260208601611e52565b91505092915050565b600060208284031215611ed857611ed7611a98565b5b600082013567ffffffffffffffff811115611ef657611ef5611a9d565b5b611f0284828501611e94565b91505092915050565b611f1481611c0f565b82525050565b6000602082019050611f2f6000830184611f0b565b92915050565b600060208284031215611f4b57611f4a611a98565b5b6000611f5984828501611ce5565b91505092915050565b611f6b81611b27565b8114611f7657600080fd5b50565b600081359050611f8881611f62565b92915050565b60008060408385031215611fa557611fa4611a98565b5b6000611fb385828601611ce5565b9250506020611fc485828601611f79565b9150509250929050565b600067ffffffffffffffff821115611fe957611fe8611d97565b5b611ff282611ba3565b9050602081019050919050565b600061201261200d84611fce565b611df7565b90508281526020810184848401111561202e5761202d611d92565b5b612039848285611e43565b509392505050565b600082601f83011261205657612055611d8d565b5b8135612066848260208601611fff565b91505092915050565b6000806000806080858703121561208957612088611a98565b5b600061209787828801611ce5565b94505060206120a887828801611ce5565b93505060406120b987828801611c30565b925050606085013567ffffffffffffffff8111156120da576120d9611a9d565b5b6120e687828801612041565b91505092959194509250565b6000806040838503121561210957612108611a98565b5b600061211785828601611ce5565b925050602061212885828601611ce5565b9150509250929050565b7f4e487b7100000000000000000000000000000000000000000000000000000000600052602260045260246000fd5b6000600282049050600182168061217957607f821691505b60208210810361218c5761218b612132565b5b50919050565b60006060820190506121a76000830186611ca4565b6121b46020830185611f0b565b6121c16040830184611ca4565b949350505050565b7f4e487b7100000000000000000000000000000000000000000000000000000000600052601160045260246000fd5b600061220382611c0f565b91507fffffffffffffffffffffffffffffffffffffffffffffffffffffffffffffffff8203612235576122346121c9565b5b600182019050919050565b600081905092915050565b600061225682611b5d565b6122608185612240565b9350612270818560208601611b79565b80840191505092915050565b6000612288828561224b565b9150612294828461224b565b91508190509392505050565b60008190508160005260206000209050919050565b60006020601f8301049050919050565b600082821b905092915050565b6000600883026123027fffffffffffffffffffffffffffffffffffffffffffffffffffffffffffffffff826122c5565b61230c86836122c5565b95508019841693508086168417925050509392505050565b6000819050919050565b600061234961234461233f84611c0f565b612324565b611c0f565b9050919050565b6000819050919050565b6123638361232e565b61237761236f82612350565b8484546122d2565b825550505050565b600090565b61238c61237f565b61239781848461235a565b505050565b5b818110156123bb576123b0600082612384565b60018101905061239d565b5050565b601f821115612400576123d1816122a0565b6123da846122b5565b810160208510156123e9578190505b6123fd6123f5856122b5565b83018261239c565b50505b505050565b600082821c905092915050565b600061242360001984600802612405565b1980831691505092915050565b600061243c8383612412565b9150826002028217905092915050565b61245582611b5d565b67ffffffffffffffff81111561246e5761246d611d97565b5b6124788254612161565b6124838282856123bf565b600060209050601f8311600181146124b657600084156124a4578287015190505b6124ae8582612430565b865550612516565b601f1984166124c4866122a0565b60005b828110156124ec578489015182556001820191506020850194506020810190506124c7565b868310156125095784890151612505601f891682612412565b8355505b6001600288020188555050505b505050505050565b600081519050919050565b600082825260208201905092915050565b60006125458261251e565b61254f8185612529565b935061255f818560208601611b79565b61256881611ba3565b840191505092915050565b60006080820190506125886000830187611ca4565b6125956020830186611ca4565b6125a26040830185611f0b565b81810360608301526125b4818461253a565b905095945050505050565b6000815190506125ce81611ace565b92915050565b6000602082840312156125ea576125e9611a98565b5b60006125f8848285016125bf565b91505092915050565b60006040820190506126166000830185611ca4565b6126236020830184611f0b565b9392505050565b7f4e487b7100000000000000000000000000000000000000000000000000000000600052601260045260246000fdfea26469706673582212200a853a7d8ac5a97cf33154c1d5aa7b5db94f61f8ccd8d5eb25571425563bfb1164736f6c63430008140033",
  "linkReferences": {},
  "deployedLinkReferences": {}
}